{
  "contractName": "Market",
  "abi": [
    {
      "anonymous": false,
      "inputs": [
        {
          "indexed": false,
          "internalType": "uint256",
          "name": "listingId",
          "type": "uint256"
        },
        {
          "indexed": false,
          "internalType": "address",
          "name": "seller",
          "type": "address"
        }
      ],
      "name": "Cancel",
      "type": "event"
    },
    {
      "anonymous": false,
      "inputs": [
        {
          "indexed": false,
          "internalType": "uint256",
          "name": "listingId",
          "type": "uint256"
        },
        {
          "indexed": false,
          "internalType": "address",
          "name": "seller",
          "type": "address"
        },
        {
          "indexed": false,
          "internalType": "address",
          "name": "token",
          "type": "address"
        },
        {
          "indexed": false,
          "internalType": "uint256",
          "name": "tokenId",
          "type": "uint256"
        },
        {
          "indexed": false,
          "internalType": "uint256",
          "name": "price",
          "type": "uint256"
        },
        {
          "indexed": false,
          "internalType": "bool",
          "name": "sold",
          "type": "bool"
        }
      ],
      "name": "Listed",
      "type": "event"
    },
    {
      "anonymous": false,
      "inputs": [
        {
          "indexed": false,
          "internalType": "uint256",
          "name": "listingId",
          "type": "uint256"
        },
        {
          "indexed": false,
          "internalType": "address",
          "name": "buyer",
          "type": "address"
        },
        {
          "indexed": false,
          "internalType": "address",
          "name": "token",
          "type": "address"
        },
        {
          "indexed": false,
          "internalType": "uint256",
          "name": "tokenId",
          "type": "uint256"
        },
        {
          "indexed": false,
          "internalType": "uint256",
          "name": "price",
          "type": "uint256"
        },
        {
          "indexed": false,
          "internalType": "bool",
          "name": "sold",
          "type": "bool"
        }
      ],
      "name": "Sale",
      "type": "event"
    },
    {
      "inputs": [
        {
          "internalType": "address",
          "name": "",
          "type": "address"
        },
        {
          "internalType": "uint256",
          "name": "",
          "type": "uint256"
        }
      ],
      "name": "getData",
      "outputs": [
        {
          "internalType": "enum Market.ListingStatus",
          "name": "status",
          "type": "uint8"
        },
        {
          "internalType": "address",
          "name": "seller",
          "type": "address"
        },
        {
          "internalType": "address",
          "name": "token",
          "type": "address"
        },
        {
          "internalType": "address",
          "name": "royalityOwnerAdd",
          "type": "address"
        },
        {
          "internalType": "uint256",
          "name": "tokenId",
          "type": "uint256"
        },
        {
          "internalType": "uint256",
          "name": "price",
          "type": "uint256"
        },
        {
          "internalType": "bool",
          "name": "sold",
          "type": "bool"
        }
      ],
      "stateMutability": "view",
      "type": "function",
      "constant": true
    },
    {
      "inputs": [
        {
          "internalType": "uint256",
          "name": "",
          "type": "uint256"
        }
      ],
      "name": "listingsArray",
      "outputs": [
        {
          "internalType": "enum Market.ListingStatus",
          "name": "status",
          "type": "uint8"
        },
        {
          "internalType": "address",
          "name": "seller",
          "type": "address"
        },
        {
          "internalType": "address",
          "name": "token",
          "type": "address"
        },
        {
          "internalType": "address",
          "name": "royalityOwnerAdd",
          "type": "address"
        },
        {
          "internalType": "uint256",
          "name": "tokenId",
          "type": "uint256"
        },
        {
          "internalType": "uint256",
          "name": "price",
          "type": "uint256"
        },
        {
          "internalType": "bool",
          "name": "sold",
          "type": "bool"
        }
      ],
      "stateMutability": "view",
      "type": "function",
      "constant": true
    },
    {
      "inputs": [
        {
          "internalType": "address",
          "name": "token",
          "type": "address"
        },
        {
          "internalType": "uint256",
          "name": "tokenId",
          "type": "uint256"
        },
        {
          "internalType": "uint256",
          "name": "price",
          "type": "uint256"
        }
      ],
      "name": "listToken",
      "outputs": [],
      "stateMutability": "nonpayable",
      "type": "function"
    },
    {
      "inputs": [],
      "name": "GetAllListings",
      "outputs": [
        {
          "components": [
            {
              "internalType": "enum Market.ListingStatus",
              "name": "status",
              "type": "uint8"
            },
            {
              "internalType": "address",
              "name": "seller",
              "type": "address"
            },
            {
              "internalType": "address",
              "name": "token",
              "type": "address"
            },
            {
              "internalType": "address",
              "name": "royalityOwnerAdd",
              "type": "address"
            },
            {
              "internalType": "uint256",
              "name": "tokenId",
              "type": "uint256"
            },
            {
              "internalType": "uint256",
              "name": "price",
              "type": "uint256"
            },
            {
              "internalType": "bool",
              "name": "sold",
              "type": "bool"
            }
          ],
          "internalType": "struct Market.Listing[]",
          "name": "",
          "type": "tuple[]"
        }
      ],
      "stateMutability": "view",
      "type": "function",
      "constant": true
    },
    {
      "inputs": [
        {
          "internalType": "uint256",
          "name": "_index",
          "type": "uint256"
        }
      ],
      "name": "deleteFromArray",
      "outputs": [],
      "stateMutability": "nonpayable",
      "type": "function"
    },
    {
      "inputs": [
        {
          "internalType": "uint256",
          "name": "listingId",
          "type": "uint256"
        }
      ],
      "name": "getListing",
      "outputs": [
        {
          "components": [
            {
              "internalType": "enum Market.ListingStatus",
              "name": "status",
              "type": "uint8"
            },
            {
              "internalType": "address",
              "name": "seller",
              "type": "address"
            },
            {
              "internalType": "address",
              "name": "token",
              "type": "address"
            },
            {
              "internalType": "address",
              "name": "royalityOwnerAdd",
              "type": "address"
            },
            {
              "internalType": "uint256",
              "name": "tokenId",
              "type": "uint256"
            },
            {
              "internalType": "uint256",
              "name": "price",
              "type": "uint256"
            },
            {
              "internalType": "bool",
              "name": "sold",
              "type": "bool"
            }
          ],
          "internalType": "struct Market.Listing",
          "name": "",
          "type": "tuple"
        }
      ],
      "stateMutability": "view",
      "type": "function",
      "constant": true
    },
    {
      "inputs": [
        {
          "internalType": "uint256",
          "name": "listingId",
          "type": "uint256"
        }
      ],
      "name": "buyToken",
      "outputs": [],
      "stateMutability": "payable",
      "type": "function",
      "payable": true
    },
    {
      "inputs": [
        {
          "internalType": "uint256",
          "name": "listingId",
          "type": "uint256"
        }
      ],
      "name": "cancel",
      "outputs": [],
      "stateMutability": "nonpayable",
      "type": "function"
    }
  ],
  "bytecode": "0x60806040526000805534801561001457600080fd5b50610f57806100246000396000f3fe60806040526004361061007b5760003560e01c806340e58ee51161004e57806340e58ee51461011e57806348fb8c221461013e5780637e07590d1461015e578063f385c8b51461017e57600080fd5b80630743194614610080578063107a274a146100a25780632979d025146100d85780632d296bf11461010b575b600080fd5b34801561008c57600080fd5b506100a061009b366004610cee565b6101a0565b005b3480156100ae57600080fd5b506100c26100bd366004610cee565b610225565b6040516100cf9190610d9d565b60405180910390f35b3480156100e457600080fd5b506100f86100f3366004610dcd565b6102fb565b6040516100cf9796959493929190610df7565b6100a0610119366004610cee565b61036b565b34801561012a57600080fd5b506100a0610139366004610cee565b61063e565b34801561014a57600080fd5b506100f8610159366004610cee565b6107d2565b34801561016a57600080fd5b506100a0610179366004610e44565b610834565b34801561018a57600080fd5b50610193610c0a565b6040516100cf9190610e77565b600381815481106101b3576101b3610ec5565b60009182526020822060069091020180547fffffffffffffffffffffff0000000000000000000000000000000000000000001681556001810180546001600160a01b03199081169091556002820180549091169055600381018290556004810191909155600501805460ff1916905550565b6040805160e081018252600080825260208201819052918101829052606081018290526080810182905260a0810182905260c081019190915260008281526001602052604090819020815160e081019092528054829060ff16600281111561028f5761028f610d07565b60028111156102a0576102a0610d07565b815281546001600160a01b0361010090910481166020830152600183015481166040830152600283015416606082015260038201546080820152600482015460a082015260059091015460ff16151560c09091015292915050565b6002602052816000526040600020818154811061031757600080fd5b600091825260209091206006909102018054600182015460028301546003840154600485015460059095015460ff80861698506001600160a01b036101009096048616975093851695929094169390921687565b6000818152600160205260409020600581015460ff16156103d35760405162461bcd60e51b815260206004820152601260248201527f6c697374696e6720696420697320736f6c64000000000000000000000000000060448201526064015b60405180910390fd5b805461010090046001600160a01b031633036104315760405162461bcd60e51b815260206004820152601660248201527f53656c6c65722063616e6e6f742062652062757965720000000000000000000060448201526064016103ca565b6000815460ff16600281111561044957610449610d07565b146104965760405162461bcd60e51b815260206004820152601560248201527f4c697374696e67206973206e6f7420616374697665000000000000000000000060448201526064016103ca565b80600401543410156104ea5760405162461bcd60e51b815260206004820152601460248201527f496e73756666696369656e74207061796d656e7400000000000000000000000060448201526064016103ca565b805460ff19908116600190811783556000848152602082905260409081902060050180549093168217909255820154600383015491516323b872dd60e01b815230600482015233602482015260448101929092526001600160a01b0316906323b872dd90606401600060405180830381600087803b15801561056b57600080fd5b505af115801561057f573d6000803e3d6000fd5b5050825460048401546040516101009092046001600160a01b031693506108fc8115029250906000818181858888f193505050501580156105c4573d6000803e3d6000fd5b506001810154600382015460048301546005840154604080518781523360208201526001600160a01b03909516908501526060840192909252608083015260ff16151560a08201527f4ddb7eb00b8e56bf4be8529304956a32cb8cdc39accfb5953436ef6d87b5524f9060c0015b60405180910390a15050565b6000818152600160205260409020805461010090046001600160a01b031633146106aa5760405162461bcd60e51b815260206004820152601e60248201527f4f6e6c792073656c6c65722063616e2063616e63656c206c697374696e67000060448201526064016103ca565b6000815460ff1660028111156106c2576106c2610d07565b1461070f5760405162461bcd60e51b815260206004820152601560248201527f4c697374696e67206973206e6f7420616374697665000000000000000000000060448201526064016103ca565b805460ff19166002178155600181015460038201546040516323b872dd60e01b815230600482015233602482015260448101919091526001600160a01b03909116906323b872dd90606401600060405180830381600087803b15801561077457600080fd5b505af1158015610788573d6000803e3d6000fd5b50508254604080518681526101009092046001600160a01b031660208301527f8dd3c361eb2366ff27c2db0eb07b9261f1d052570742ab8c9a0c326f37aa576d9350019050610632565b600381815481106107e257600080fd5b600091825260209091206006909102018054600182015460028301546003840154600485015460059095015460ff80861697506101009095046001600160a01b03908116969481169593169391921687565b6040516323b872dd60e01b8152336004820152306024820152604481018390526001600160a01b038416906323b872dd90606401600060405180830381600087803b15801561088257600080fd5b505af1158015610896573d6000803e3d6000fd5b5050505060006040518060e00160405280600060028111156108ba576108ba610d07565b815233602082018190526001600160a01b038716604083015260608201526080810185905260a0016108ed846001610ef1565b81526000602090910181905280549192508061090883610f08565b9091555050600080548152600160208190526040909120825181548493839160ff19169083600281111561093e5761093e610d07565b0217905550602082015181546001600160a01b039182166101000274ffffffffffffffffffffffffffffffffffffffff00199091161782556040830151600180840180549284166001600160a01b0319938416179055606085015160028086018054929095169190931617909255608084015160038085019190915560a0850151600485015560c0909401516005909301805493151560ff1994851617905583548083018555600094909452845160069094027fc2575a0e9e593c00f959f8c92f12db2869c3395a3b0502d05e2516446f71f85b01805486959194919385939190921691908490811115610a3457610a34610d07565b021790555060208281015182546001600160a01b039182166101000274ffffffffffffffffffffffffffffffffffffffff0019909116178355604080850151600180860180549285166001600160a01b03199384161790556060870151600280880180549290961691909316179093556080860151600386015560a0860151600486015560c0909501516005909401805494151560ff1995861617905533600090815285845290812080548084018255908252929020855160069093020180548695919485939116918490811115610b0e57610b0e610d07565b0217905550602082810151825474ffffffffffffffffffffffffffffffffffffffff0019166101006001600160a01b03928316021783556040808501516001850180546001600160a01b031990811692851692909217905560608087015160028701805490931690851617909155608080870151600387015560a080880151600488015560c0978801516005909701805460ff1916971515979097179096556000805484519081523396810196909652938b169285019290925283018890528201869052918101919091527f46002f028d8c37ef0285a2713be05dc10743d57d02bb685813e01067b6101b1b910160405180910390a150505050565b60606003805480602002602001604051908101604052809291908181526020016000905b82821015610ce5576000848152602090206040805160e08101909152600684029091018054829060ff166002811115610c6957610c69610d07565b6002811115610c7a57610c7a610d07565b815281546001600160a01b036101009091048116602080840191909152600180850154831660408501526002850154909216606084015260038401546080840152600484015460a084015260059093015460ff16151560c09092019190915291835292019101610c2e565b50505050905090565b600060208284031215610d0057600080fd5b5035919050565b634e487b7160e01b600052602160045260246000fd5b60038110610d3b57634e487b7160e01b600052602160045260246000fd5b9052565b610d4a828251610d1d565b60208101516001600160a01b03808216602085015280604084015116604085015280606084015116606085015250506080810151608083015260a081015160a083015260c0810151151560c08301525050565b60e08101610dab8284610d3f565b92915050565b80356001600160a01b0381168114610dc857600080fd5b919050565b60008060408385031215610de057600080fd5b610de983610db1565b946020939093013593505050565b60e08101610e05828a610d1d565b6001600160a01b0397881660208301529587166040820152939095166060840152608083019190915260a082015291151560c090920191909152919050565b600080600060608486031215610e5957600080fd5b610e6284610db1565b95602085013595506040909401359392505050565b6020808252825182820181905260009190848201906040850190845b81811015610eb957610ea6838551610d3f565b9284019260e09290920191600101610e93565b50909695505050505050565b634e487b7160e01b600052603260045260246000fd5b634e487b7160e01b600052601160045260246000fd5b8082028115828204841417610dab57610dab610edb565b600060018201610f1a57610f1a610edb565b506001019056fea264697066735822122045b1f84003dad36916617570e1990d6a7ded437b1d99dbe565b65bea261da21f64736f6c63430008110033",
  "immutableReferences": {},
  "source": "// SPDX-License-Identifier: MIT\npragma solidity ^0.8.13;\n\nimport \"@openzeppelin/contracts/token/ERC721/IERC721.sol\";\n\ncontract Market {\n    enum ListingStatus {\n        Active,\n        Sold,\n        Cancelled\n    }\n\n    struct Listing {\n        ListingStatus status;\n        address seller;\n        address token;\n        address royalityOwnerAdd;\n        uint tokenId;\n        uint price;\n        bool sold;\n    }\n\n    event Listed(\n        uint listingId,\n        address seller,\n        address token,\n        uint tokenId,\n        uint price,\n        bool sold\n    );\n\n    event Sale(\n        uint listingId,\n        address buyer,\n        address token,\n        uint tokenId,\n        uint price,\n        bool sold\n    );\n\n    event Cancel(uint listingId, address seller);\n\n    uint private _listingId = 0;\n    mapping(uint => Listing) private _listings;\n    mapping(address => Listing[]) public getData;\n    Listing[] public listingsArray;\n\n    function listToken(\n        address token,\n        uint tokenId,\n        uint price\n    ) external {\n        IERC721(token).transferFrom(msg.sender, address(this), tokenId);\n\n        Listing memory listing = Listing(\n            ListingStatus.Active,\n            msg.sender,\n            token,\n            // IERC721(token).ownerOf(tokenId),\n            msg.sender,\n            tokenId,\n            price * 1**1,\n            false\n        );\n\n        _listingId++;\n\n        _listings[_listingId] = listing;\n\n        //this line will push property into listings Array\n        listingsArray.push(listing);\n        getData[msg.sender].push(listing);\n\n        emit Listed(_listingId, msg.sender, token, tokenId, price, false);\n    }\n\n    //now we will make a function which will return a complete array which has mapping\n    function GetAllListings() public view returns (Listing[] memory) {\n        return listingsArray;\n    }\n\n    //this function will delete an item on provided index number in array\n\n    function deleteFromArray(uint256 _index) public {\n        delete listingsArray[_index];\n    }\n\n    function getListing(uint listingId) public view returns (Listing memory) {\n        return _listings[listingId];\n    }\n\n    function buyToken(uint listingId) external payable {\n        Listing storage listing = _listings[listingId];\n\n        require(_listings[listingId].sold == false, \"listing id is sold\");\n        require(msg.sender != listing.seller, \"Seller cannot be buyer\");\n        require(\n            listing.status == ListingStatus.Active,\n            \"Listing is not active\"\n        );\n\n        require(msg.value >= listing.price, \"Insufficient payment\");\n\n        listing.status = ListingStatus.Sold;\n        _listings[listingId].sold = true;\n\n        IERC721(listing.token).transferFrom(\n            address(this),\n            msg.sender,\n            listing.tokenId\n        );\n        payable(listing.seller).transfer(listing.price);\n\n        emit Sale(\n            listingId,\n            msg.sender,\n            listing.token,\n            listing.tokenId,\n            listing.price,\n            listing.sold\n        );\n    }\n\n    function cancel(uint listingId) public {\n        Listing storage listing = _listings[listingId];\n\n        require(msg.sender == listing.seller, \"Only seller can cancel listing\");\n        require(\n            listing.status == ListingStatus.Active,\n            \"Listing is not active\"\n        );\n\n        listing.status = ListingStatus.Cancelled;\n\n        IERC721(listing.token).transferFrom(\n            address(this),\n            msg.sender,\n            listing.tokenId\n        );\n\n        emit Cancel(listingId, listing.seller);\n    }\n}\n",
  "sourcePath": "/home/rayzia/Desktop/NftMarketPlace/contracts/Market.sol",
  "compiler": {
    "name": "solc",
    "version": "0.8.17+commit.8df45f5f.Emscripten.clang"
  },
  "schemaVersion": "3.4.10",
  "updatedAt": "2022-10-25T04:31:54.641Z",
  "networkType": "ethereum",
  "devdoc": {
    "kind": "dev",
    "methods": {},
    "version": 1
  },
  "userdoc": {
    "kind": "user",
    "methods": {},
    "version": 1
  }
}