{
  "contractName": "MyNFT",
  "abi": [
    {
      "inputs": [],
      "stateMutability": "nonpayable",
      "type": "constructor"
    },
    {
      "anonymous": false,
      "inputs": [
        {
          "indexed": true,
          "internalType": "address",
          "name": "owner",
          "type": "address"
        },
        {
          "indexed": true,
          "internalType": "address",
          "name": "spender",
          "type": "address"
        },
        {
          "indexed": true,
          "internalType": "uint256",
          "name": "id",
          "type": "uint256"
        }
      ],
      "name": "Approval",
      "type": "event"
    },
    {
      "anonymous": false,
      "inputs": [
        {
          "indexed": true,
          "internalType": "address",
          "name": "owner",
          "type": "address"
        },
        {
          "indexed": true,
          "internalType": "address",
          "name": "operator",
          "type": "address"
        },
        {
          "indexed": false,
          "internalType": "bool",
          "name": "approved",
          "type": "bool"
        }
      ],
      "name": "ApprovalForAll",
      "type": "event"
    },
    {
      "anonymous": false,
      "inputs": [
        {
          "indexed": true,
          "internalType": "address",
          "name": "from",
          "type": "address"
        },
        {
          "indexed": true,
          "internalType": "address",
          "name": "to",
          "type": "address"
        },
        {
          "indexed": true,
          "internalType": "uint256",
          "name": "id",
          "type": "uint256"
        }
      ],
      "name": "Transfer",
      "type": "event"
    },
    {
      "inputs": [
        {
          "internalType": "address",
          "name": "spender",
          "type": "address"
        },
        {
          "internalType": "uint256",
          "name": "id",
          "type": "uint256"
        }
      ],
      "name": "approve",
      "outputs": [],
      "stateMutability": "nonpayable",
      "type": "function"
    },
    {
      "inputs": [
        {
          "internalType": "address",
          "name": "owner",
          "type": "address"
        }
      ],
      "name": "balanceOf",
      "outputs": [
        {
          "internalType": "uint256",
          "name": "",
          "type": "uint256"
        }
      ],
      "stateMutability": "view",
      "type": "function",
      "constant": true
    },
    {
      "inputs": [
        {
          "internalType": "uint256",
          "name": "id",
          "type": "uint256"
        }
      ],
      "name": "getApproved",
      "outputs": [
        {
          "internalType": "address",
          "name": "",
          "type": "address"
        }
      ],
      "stateMutability": "view",
      "type": "function",
      "constant": true
    },
    {
      "inputs": [
        {
          "internalType": "address",
          "name": "",
          "type": "address"
        },
        {
          "internalType": "address",
          "name": "",
          "type": "address"
        }
      ],
      "name": "isApprovedForAll",
      "outputs": [
        {
          "internalType": "bool",
          "name": "",
          "type": "bool"
        }
      ],
      "stateMutability": "view",
      "type": "function",
      "constant": true
    },
    {
      "inputs": [],
      "name": "name",
      "outputs": [
        {
          "internalType": "string",
          "name": "",
          "type": "string"
        }
      ],
      "stateMutability": "view",
      "type": "function",
      "constant": true
    },
    {
      "inputs": [
        {
          "internalType": "uint256",
          "name": "id",
          "type": "uint256"
        }
      ],
      "name": "ownerOf",
      "outputs": [
        {
          "internalType": "address",
          "name": "owner",
          "type": "address"
        }
      ],
      "stateMutability": "view",
      "type": "function",
      "constant": true
    },
    {
      "inputs": [
        {
          "internalType": "address",
          "name": "from",
          "type": "address"
        },
        {
          "internalType": "address",
          "name": "to",
          "type": "address"
        },
        {
          "internalType": "uint256",
          "name": "id",
          "type": "uint256"
        }
      ],
      "name": "safeTransferFrom",
      "outputs": [],
      "stateMutability": "nonpayable",
      "type": "function"
    },
    {
      "inputs": [
        {
          "internalType": "address",
          "name": "from",
          "type": "address"
        },
        {
          "internalType": "address",
          "name": "to",
          "type": "address"
        },
        {
          "internalType": "uint256",
          "name": "id",
          "type": "uint256"
        },
        {
          "internalType": "bytes",
          "name": "data",
          "type": "bytes"
        }
      ],
      "name": "safeTransferFrom",
      "outputs": [],
      "stateMutability": "nonpayable",
      "type": "function"
    },
    {
      "inputs": [
        {
          "internalType": "address",
          "name": "operator",
          "type": "address"
        },
        {
          "internalType": "bool",
          "name": "approved",
          "type": "bool"
        }
      ],
      "name": "setApprovalForAll",
      "outputs": [],
      "stateMutability": "nonpayable",
      "type": "function"
    },
    {
      "inputs": [
        {
          "internalType": "bytes4",
          "name": "interfaceId",
          "type": "bytes4"
        }
      ],
      "name": "supportsInterface",
      "outputs": [
        {
          "internalType": "bool",
          "name": "",
          "type": "bool"
        }
      ],
      "stateMutability": "pure",
      "type": "function",
      "constant": true
    },
    {
      "inputs": [],
      "name": "symbol",
      "outputs": [
        {
          "internalType": "string",
          "name": "",
          "type": "string"
        }
      ],
      "stateMutability": "view",
      "type": "function",
      "constant": true
    },
    {
      "inputs": [
        {
          "internalType": "uint256",
          "name": "_tokenId",
          "type": "uint256"
        }
      ],
      "name": "tokenURI",
      "outputs": [
        {
          "internalType": "string",
          "name": "",
          "type": "string"
        }
      ],
      "stateMutability": "view",
      "type": "function",
      "constant": true
    },
    {
      "inputs": [
        {
          "internalType": "address",
          "name": "from",
          "type": "address"
        },
        {
          "internalType": "address",
          "name": "to",
          "type": "address"
        },
        {
          "internalType": "uint256",
          "name": "id",
          "type": "uint256"
        }
      ],
      "name": "transferFrom",
      "outputs": [],
      "stateMutability": "nonpayable",
      "type": "function"
    },
    {
      "inputs": [
        {
          "internalType": "address",
          "name": "to",
          "type": "address"
        }
      ],
      "name": "mint",
      "outputs": [],
      "stateMutability": "nonpayable",
      "type": "function"
    },
    {
      "inputs": [],
      "name": "random",
      "outputs": [
        {
          "internalType": "uint256",
          "name": "",
          "type": "uint256"
        }
      ],
      "stateMutability": "view",
      "type": "function",
      "constant": true
    }
  ],
  "bytecode": "0x61024060405260506101c08181526080918291906200168c6101e0398152602001604051806080016040528060578152602001620016dc605791398152602001604051806080016040528060578152602001620018e660579139815260200160405180608001604052806057815260200162001635605791398152602001604051806080016040528060578152602001620017336057913981526020016040518060800160405280605781526020016200178a605791398152602001604051806080016040528060578152602001620018386057913981526020016040518060800160405280605781526020016200193d605791398152602001604051806080016040528060578152602001620017e16057913981526020016040518060800160405280605781526020016200188f6057913990526200014490600790600a620001b9565b5060006008553480156200015757600080fd5b50604051806040016040528060038152602001625a494160e81b815250604051806040016040528060038152602001625a495560e81b8152508160059081620001a1919062000335565b506006620001b0828262000335565b50505062000401565b82805482825590600052602060002090810192821562000204579160200282015b82811115620002045782518290620001f3908262000335565b5091602001919060010190620001da565b506200021292915062000216565b5090565b80821115620002125760006200022d828262000237565b5060010162000216565b5080546200024590620002a6565b6000825580601f1062000256575050565b601f01602090049060005260206000209081019062000276919062000279565b50565b5b808211156200021257600081556001016200027a565b634e487b7160e01b600052604160045260246000fd5b600181811c90821680620002bb57607f821691505b602082108103620002dc57634e487b7160e01b600052602260045260246000fd5b50919050565b601f8211156200033057600081815260208120601f850160051c810160208610156200030b5750805b601f850160051c820191505b818110156200032c5782815560010162000317565b5050505b505050565b81516001600160401b0381111562000351576200035162000290565b6200036981620003628454620002a6565b84620002e2565b602080601f831160018114620003a15760008415620003885750858301515b600019600386901b1c1916600185901b1785556200032c565b600085815260208120601f198616915b82811015620003d257888601518255948401946001909101908401620003b1565b5085821015620003f15787850151600019600388901b60f8161c191681555b5050505050600190811b01905550565b61122480620004116000396000f3fe608060405234801561001057600080fd5b50600436106100f55760003560e01c80636352211e11610097578063a22cb46511610066578063a22cb465146101f4578063b88d4fde14610207578063c87b56dd1461021a578063e985e9c51461022d57600080fd5b80636352211e146101b35780636a627842146101c657806370a08231146101d957806395d89b41146101ec57600080fd5b8063095ea7b3116100d3578063095ea7b31461016257806323b872dd1461017757806342842e0e1461018a5780635ec01e4d1461019d57600080fd5b806301ffc9a7146100fa57806306fdde0314610122578063081812fc14610137575b600080fd5b61010d610108366004610d74565b61025b565b60405190151581526020015b60405180910390f35b61012a610292565b6040516101199190610d98565b61014a610145366004610de6565b610324565b6040516001600160a01b039091168152602001610119565b610175610170366004610e16565b6103a9565b005b610175610185366004610e40565b610498565b610175610198366004610e40565b61066b565b6101a5610763565b604051908152602001610119565b61014a6101c1366004610de6565b6107ae565b6101756101d4366004610e7c565b610818565b6101a56101e7366004610e7c565b6108fd565b61012a610971565b610175610202366004610e97565b610980565b610175610215366004610ed3565b6109ec565b61012a610228366004610de6565b610ad4565b61010d61023b366004610f6e565b600360209081526000928352604080842090915290825290205460ff1681565b60006001600160e01b031982166380ac58cd60e01b148061028c57506001600160e01b031982166301ffc9a760e01b145b92915050565b6060600580546102a190610fa1565b80601f01602080910402602001604051908101604052809291908181526020018280546102cd90610fa1565b801561031a5780601f106102ef5761010080835404028352916020019161031a565b820191906000526020600020905b8154815290600101906020018083116102fd57829003601f168201915b5050505050905090565b6000818152602081905260408120546001600160a01b031661038d5760405162461bcd60e51b815260206004820152601360248201527f746f6b656e20646f65736e27742065786973740000000000000000000000000060448201526064015b60405180910390fd5b506000908152600260205260409020546001600160a01b031690565b6000818152602081905260409020546001600160a01b0316338114806103f257506001600160a01b038116600090815260036020908152604080832033845290915290205460ff165b61042f5760405162461bcd60e51b815260206004820152600e60248201526d1b9bdd08185d5d1a1bdc9a5e995960921b6044820152606401610384565b600082815260026020526040808220805473ffffffffffffffffffffffffffffffffffffffff19166001600160a01b0387811691821790925591518593918516917f8c5be1e5ebec7d5bd14f71427d1e84f3dd0314c0f7b2291e5b200ac8c7c3b92591a4505050565b6000818152602081905260409020546001600160a01b038481169116146105015760405162461bcd60e51b815260206004820152600d60248201527f66726f6d20213d206f776e6572000000000000000000000000000000000000006044820152606401610384565b6001600160a01b0382166105575760405162461bcd60e51b815260206004820152601860248201527f7472616e7366657220746f207a65726f206164647265737300000000000000006044820152606401610384565b610562833383610b76565b61059f5760405162461bcd60e51b815260206004820152600e60248201526d1b9bdd08185d5d1a1bdc9a5e995960921b6044820152606401610384565b6001600160a01b03831660009081526001602052604081208054916105c383610ff1565b90915550506001600160a01b03821660009081526001602052604081208054916105ec83611008565b909155505060008181526020818152604080832080546001600160a01b0380881673ffffffffffffffffffffffffffffffffffffffff1992831681179093556002909452828520805490911690559051849391928716917fddf252ad1be2c89b69c2b068fc378daa952ba7f163c4a11628f55a4df523b3ef91a4505050565b610676838383610498565b6001600160a01b0382163b158061071f5750604051630a85bd0160e11b8082523360048301526001600160a01b03858116602484015260448301849052608060648401526000608484015290919084169063150b7a029060a4016020604051808303816000875af11580156106ef573d6000803e3d6000fd5b505050506040513d601f19601f820116820180604052508101906107139190611021565b6001600160e01b031916145b61075e5760405162461bcd60e51b815260206004820152601060248201526f1d5b9cd85999481c9958da5c1a595b9d60821b6044820152606401610384565b505050565b60075460408051426020820152449181019190915260608101829052600091906080016040516020818303038152906040528051906020012060001c6107a9919061103e565b905090565b6000818152602081905260409020546001600160a01b0316806108135760405162461bcd60e51b815260206004820152601360248201527f746f6b656e20646f65736e2774206578697374000000000000000000000000006044820152606401610384565b919050565b6008805490600061082883611008565b909155505060075460009061083b610763565b610845919061103e565b90506108f9826008546007848154811061086157610861611060565b90600052602060002001805461087690610fa1565b80601f01602080910402602001604051908101604052809291908181526020018280546108a290610fa1565b80156108ef5780601f106108c4576101008083540402835291602001916108ef565b820191906000526020600020905b8154815290600101906020018083116108d257829003601f168201915b5050505050610be9565b5050565b60006001600160a01b0382166109555760405162461bcd60e51b815260206004820152601460248201527f6f776e6572203d207a65726f20616464726573730000000000000000000000006044820152606401610384565b506001600160a01b031660009081526001602052604090205490565b6060600680546102a190610fa1565b3360008181526003602090815260408083206001600160a01b03871680855290835292819020805460ff191686151590811790915590519081529192917f17307eab39ab6107e8899845ad3d59bd9653f200f220920489ca2b5937696c31910160405180910390a35050565b6109f7858585610498565b6001600160a01b0384163b1580610a8e5750604051630a85bd0160e11b808252906001600160a01b0386169063150b7a0290610a3f9033908a90899089908990600401611076565b6020604051808303816000875af1158015610a5e573d6000803e3d6000fd5b505050506040513d601f19601f82011682018060405250810190610a829190611021565b6001600160e01b031916145b610acd5760405162461bcd60e51b815260206004820152601060248201526f1d5b9cd85999481c9958da5c1a595b9d60821b6044820152606401610384565b5050505050565b6000818152600460205260409020805460609190610af190610fa1565b80601f0160208091040260200160405190810160405280929190818152602001828054610b1d90610fa1565b8015610b6a5780601f10610b3f57610100808354040283529160200191610b6a565b820191906000526020600020905b815481529060010190602001808311610b4d57829003601f168201915b50505050509050919050565b6000836001600160a01b0316836001600160a01b03161480610bbd57506001600160a01b0380851660009081526003602090815260408083209387168352929052205460ff165b80610be157506000828152600260205260409020546001600160a01b038481169116145b949350505050565b610bf38383610c11565b6000828152600460205260409020610c0b828261112e565b50505050565b6001600160a01b038216610c675760405162461bcd60e51b815260206004820152601460248201527f6d696e7420746f207a65726f20616464726573730000000000000000000000006044820152606401610384565b6000818152602081905260409020546001600160a01b031615610ccc5760405162461bcd60e51b815260206004820152600e60248201527f616c7265616479206d696e7465640000000000000000000000000000000000006044820152606401610384565b6001600160a01b0382166000908152600160205260408120805491610cf083611008565b9091555050600081815260208190526040808220805473ffffffffffffffffffffffffffffffffffffffff19166001600160a01b03861690811790915590518392907fddf252ad1be2c89b69c2b068fc378daa952ba7f163c4a11628f55a4df523b3ef908290a45050565b6001600160e01b031981168114610d7157600080fd5b50565b600060208284031215610d8657600080fd5b8135610d9181610d5b565b9392505050565b600060208083528351808285015260005b81811015610dc557858101830151858201604001528201610da9565b506000604082860101526040601f19601f8301168501019250505092915050565b600060208284031215610df857600080fd5b5035919050565b80356001600160a01b038116811461081357600080fd5b60008060408385031215610e2957600080fd5b610e3283610dff565b946020939093013593505050565b600080600060608486031215610e5557600080fd5b610e5e84610dff565b9250610e6c60208501610dff565b9150604084013590509250925092565b600060208284031215610e8e57600080fd5b610d9182610dff565b60008060408385031215610eaa57600080fd5b610eb383610dff565b915060208301358015158114610ec857600080fd5b809150509250929050565b600080600080600060808688031215610eeb57600080fd5b610ef486610dff565b9450610f0260208701610dff565b935060408601359250606086013567ffffffffffffffff80821115610f2657600080fd5b818801915088601f830112610f3a57600080fd5b813581811115610f4957600080fd5b896020828501011115610f5b57600080fd5b9699959850939650602001949392505050565b60008060408385031215610f8157600080fd5b610f8a83610dff565b9150610f9860208401610dff565b90509250929050565b600181811c90821680610fb557607f821691505b602082108103610fd557634e487b7160e01b600052602260045260246000fd5b50919050565b634e487b7160e01b600052601160045260246000fd5b60008161100057611000610fdb565b506000190190565b60006001820161101a5761101a610fdb565b5060010190565b60006020828403121561103357600080fd5b8151610d9181610d5b565b60008261105b57634e487b7160e01b600052601260045260246000fd5b500690565b634e487b7160e01b600052603260045260246000fd5b60006001600160a01b03808816835280871660208401525084604083015260806060830152826080830152828460a0840137600060a0848401015260a0601f19601f85011683010190509695505050505050565b634e487b7160e01b600052604160045260246000fd5b601f82111561075e57600081815260208120601f850160051c810160208610156111075750805b601f850160051c820191505b8181101561112657828155600101611113565b505050505050565b815167ffffffffffffffff811115611148576111486110ca565b61115c816111568454610fa1565b846110e0565b602080601f83116001811461119157600084156111795750858301515b600019600386901b1c1916600185901b178555611126565b600085815260208120601f198616915b828110156111c0578886015182559484019460019091019084016111a1565b50858210156111de5787850151600019600388901b60f8161c191681555b5050505050600190811b0190555056fea2646970667358221220c437ef1e28de0909b9ebf5dd3d02ae773ca592ef91f0dea213be16e5f205c73964736f6c6343000811003368747470733a2f2f676174657761792e70696e6174612e636c6f75642f697066732f516d535966774b33767377716d336e5652354b44414b384a4b326e766b4a375174427034536956753868715861532f332e6a736f6e68747470733a2f2f676174657761792e70696e6174612e636c6f75642f697066732f516d507a4d466357437647796768465a646e5238586b794b53316b524d436f644539616a37564d6363445848413468747470733a2f2f676174657761792e70696e6174612e636c6f75642f697066732f516d535966774b33767377716d336e5652354b44414b384a4b326e766b4a375174427034536956753868715861532f312e6a736f6e68747470733a2f2f676174657761792e70696e6174612e636c6f75642f697066732f516d535966774b33767377716d336e5652354b44414b384a4b326e766b4a375174427034536956753868715861532f342e6a736f6e68747470733a2f2f676174657761792e70696e6174612e636c6f75642f697066732f516d535966774b33767377716d336e5652354b44414b384a4b326e766b4a375174427034536956753868715861532f352e6a736f6e68747470733a2f2f676174657761792e70696e6174612e636c6f75642f697066732f516d535966774b33767377716d336e5652354b44414b384a4b326e766b4a375174427034536956753868715861532f382e6a736f6e68747470733a2f2f676174657761792e70696e6174612e636c6f75642f697066732f516d535966774b33767377716d336e5652354b44414b384a4b326e766b4a375174427034536956753868715861532f362e6a736f6e68747470733a2f2f676174657761792e70696e6174612e636c6f75642f697066732f516d535966774b33767377716d336e5652354b44414b384a4b326e766b4a375174427034536956753868715861532f392e6a736f6e68747470733a2f2f676174657761792e70696e6174612e636c6f75642f697066732f516d535966774b33767377716d336e5652354b44414b384a4b326e766b4a375174427034536956753868715861532f322e6a736f6e68747470733a2f2f676174657761792e70696e6174612e636c6f75642f697066732f516d535966774b33767377716d336e5652354b44414b384a4b326e766b4a375174427034536956753868715861532f372e6a736f6e",
  "immutableReferences": {},
  "source": "// SPDX-License-Identifier: MIT\npragma solidity ^0.8.13;\n// import \"@openzeppelin/contracts/token/ERC721/extensions/ERC721URIStorage.sol\";\n\ninterface IERC165 {\n    function supportsInterface(bytes4 interfaceID) external view returns (bool);\n}\n\ninterface IERC721Receiver {\n    function onERC721Received(\n        address operator,\n        address from,\n        uint tokenId,\n        bytes calldata data\n    ) external returns (bytes4);\n}\n\ninterface ERC721Metadata  {\n\n    function name() external view returns (string memory _name);\n\n    function symbol() external view returns (string memory _symbol);\n\n    function tokenURI(uint256 _tokenId) external view returns (string memory);\n}\n\ninterface IERC721 is IERC165 {\n    function balanceOf(address owner) external view returns (uint balance);\n\n    function ownerOf(uint tokenId) external view returns (address owner);\n\n    function safeTransferFrom(\n        address from,\n        address to,\n        uint tokenId\n    ) external;\n\n    function safeTransferFrom(\n        address from,\n        address to,\n        uint tokenId,\n        bytes calldata data\n    ) external;\n\n    function transferFrom(\n        address from,\n        address to,\n        uint tokenId\n    ) external;\n\n    function approve(address to, uint tokenId) external;\n\n    function getApproved(uint tokenId) external view returns (address operator);\n\n    function setApprovalForAll(address operator, bool _approved) external;\n\n    function isApprovedForAll(address owner, address operator)\n        external\n        view\n        returns (bool);\n}\n\n\ncontract ERC721 is IERC721 {\n    event Transfer(address indexed from, address indexed to, uint indexed id);\n    event Approval(address indexed owner, address indexed spender, uint indexed id);\n    event ApprovalForAll(\n        address indexed owner,\n        address indexed operator,\n        bool approved\n    );\n\n    // Mapping from token ID to owner address\n    mapping(uint => address) internal _ownerOf;\n\n    // Mapping owner address to token count\n    mapping(address => uint) internal _balanceOf;\n\n    // Mapping from token ID to approved address\n    mapping(uint => address) internal _approvals;\n\n    // Mapping from owner to operator approvals\n    mapping(address => mapping(address => bool)) public isApprovedForAll;\n\n    mapping (uint256 => string) internal tokenURIs;\n\n    string private _name;\n    string private _symbol;\n\n    constructor(string memory name_, string memory symbol_) {\n        _name = name_;\n        _symbol = symbol_;\n    }\n\n    function supportsInterface(bytes4 interfaceId) external pure returns (bool) {\n        return\n            interfaceId == type(IERC721).interfaceId ||\n            interfaceId == type(IERC165).interfaceId;\n    }\n\n    function ownerOf(uint id) external view returns (address owner) {\n        owner = _ownerOf[id];\n        require(owner != address(0), \"token doesn't exist\");\n    }\n\n    function balanceOf(address owner) external view returns (uint) {\n        require(owner != address(0), \"owner = zero address\");\n        return _balanceOf[owner];\n    }\n\n    function setApprovalForAll(address operator, bool approved) external {\n        isApprovedForAll[msg.sender][operator] = approved;\n        emit ApprovalForAll(msg.sender, operator, approved);\n    }\n\n    function approve(address spender, uint id) external {\n        address owner = _ownerOf[id];\n        require(\n            msg.sender == owner || isApprovedForAll[owner][msg.sender],\n            \"not authorized\"\n        );\n\n        _approvals[id] = spender;\n\n        emit Approval(owner, spender, id);\n    }\n\n    function getApproved(uint id) external view returns (address) {\n        require(_ownerOf[id] != address(0), \"token doesn't exist\");\n        return _approvals[id];\n    }\n\n    function _isApprovedOrOwner(\n        address owner,\n        address spender,\n        uint id\n    ) internal view returns (bool) {\n        return (spender == owner ||\n            isApprovedForAll[owner][spender] ||\n            spender == _approvals[id]);\n    }\n\n    function transferFrom(\n        address from,\n        address to,\n        uint id\n    ) public {\n        require(from == _ownerOf[id], \"from != owner\");\n        require(to != address(0), \"transfer to zero address\");\n\n        require(_isApprovedOrOwner(from, msg.sender, id), \"not authorized\");\n\n        _balanceOf[from]--;\n        _balanceOf[to]++;\n        _ownerOf[id] = to;\n\n        delete _approvals[id];\n\n        emit Transfer(from, to, id);\n    }\n\n    function safeTransferFrom(\n        address from,\n        address to,\n        uint id\n    ) external {\n        transferFrom(from, to, id);\n\n        require(\n            to.code.length == 0 ||\n                IERC721Receiver(to).onERC721Received(msg.sender, from, id, \"\") ==\n                IERC721Receiver.onERC721Received.selector,\n            \"unsafe recipient\"\n        );\n    }\n\n    function safeTransferFrom(\n        address from,\n        address to,\n        uint id,\n        bytes calldata data\n    ) external {\n        transferFrom(from, to, id);\n\n        require(\n            to.code.length == 0 ||\n                IERC721Receiver(to).onERC721Received(msg.sender, from, id, data) ==\n                IERC721Receiver.onERC721Received.selector,\n            \"unsafe recipient\"\n        );\n    }\n\n    function _mint(address to, uint id) internal {\n        require(to != address(0), \"mint to zero address\");\n        require(_ownerOf[id] == address(0), \"already minted\");\n\n        _balanceOf[to]++;\n        _ownerOf[id] = to;\n\n        emit Transfer(address(0), to, id);\n    }\n\n    function _safeMint(address to, uint tokenId, string memory uri) internal{\n        _mint(to, tokenId);\n        tokenURIs[tokenId] = uri;\n    }\n\n    function tokenURI(uint _tokenId) external view returns (string memory){\n        return tokenURIs[_tokenId];\n    }\n\n    function name() external view returns (string memory){\n        return _name;\n    }\n\n    function symbol() external view returns (string memory){\n        return _symbol;\n    }\n    \n    function _burn(uint id) internal {\n        address owner = _ownerOf[id];\n        require(owner != address(0), \"not minted\");\n\n        _balanceOf[owner] -= 1;\n\n        delete _ownerOf[id];\n        delete _approvals[id];\n\n        emit Transfer(owner, address(0), id);\n    }\n}\n\ncontract MyNFT is ERC721{\n    constructor() ERC721(\"ZIA\" , \"ZIU\"){}\n\n    string[] arr = [\"https://gateway.pinata.cloud/ipfs/QmPzMFcWCvGyghFZdnR8XkyKS1kRMCodE9aj7VMccDXHA4\" , \n    \"https://gateway.pinata.cloud/ipfs/QmSYfwK3vswqm3nVR5KDAK8JK2nvkJ7QtBp4SiVu8hqXaS/1.json\",\n    \"https://gateway.pinata.cloud/ipfs/QmSYfwK3vswqm3nVR5KDAK8JK2nvkJ7QtBp4SiVu8hqXaS/2.json\",\n    \"https://gateway.pinata.cloud/ipfs/QmSYfwK3vswqm3nVR5KDAK8JK2nvkJ7QtBp4SiVu8hqXaS/3.json\",\n    \"https://gateway.pinata.cloud/ipfs/QmSYfwK3vswqm3nVR5KDAK8JK2nvkJ7QtBp4SiVu8hqXaS/4.json\",\n    \"https://gateway.pinata.cloud/ipfs/QmSYfwK3vswqm3nVR5KDAK8JK2nvkJ7QtBp4SiVu8hqXaS/5.json\",\n    \"https://gateway.pinata.cloud/ipfs/QmSYfwK3vswqm3nVR5KDAK8JK2nvkJ7QtBp4SiVu8hqXaS/6.json\",\n    \"https://gateway.pinata.cloud/ipfs/QmSYfwK3vswqm3nVR5KDAK8JK2nvkJ7QtBp4SiVu8hqXaS/7.json\",\n    \"https://gateway.pinata.cloud/ipfs/QmSYfwK3vswqm3nVR5KDAK8JK2nvkJ7QtBp4SiVu8hqXaS/8.json\",\n    \"https://gateway.pinata.cloud/ipfs/QmSYfwK3vswqm3nVR5KDAK8JK2nvkJ7QtBp4SiVu8hqXaS/9.json\"];\n    uint increment = 0;\n    // uint a = 0;\n    // string private uri1 = \"\";\n    // string private uri2 = \"https://gateway.pinata.cloud/ipfs/QmSYfwK3vswqm3nVR5KDAK8JK2nvkJ7QtBp4SiVu8hqXaS/1.json\";\n    // string private uri3 = \"https://gateway.pinata.cloud/ipfs/QmSYfwK3vswqm3nVR5KDAK8JK2nvkJ7QtBp4SiVu8hqXaS/4.json\";\n    // arr.push(uri1);\n    function mint(address to) external {\n        increment++;\n        uint a = random()% arr.length;\n        _safeMint(to, increment, arr[a]);\n    }\n    // function safeMint(address to,string memory _authentication) public  {\n    //     authentication = _authentication;\n    //     if((keccak256(abi.encodePacked(authentication)) == keccak256(abi.encodePacked(VerificationKey)))){\n    //     verified = true;\n    //     require(verified == true,\"keys doesn't match\");\n    //     uint256 tokenId = _tokenIdCounter.current();\n    //     _tokenIdCounter.increment();\n    //     _safeMint(to, tokenId);\n    // }\n    \n\t// \t}\n    function random() public view returns (uint256) {\n        // increment++;\n        // sha3 and now have been deprecated\n        return uint(keccak256(abi.encode(block.timestamp, block.difficulty, arr.length)))%arr.length;\n        \n        // convert hash to integer\n        // players is an array of entrants\n        \n    }\n\n    // function burn(uint id) external {\n    //     require(msg.sender == _ownerOf[id], \"not owner\");\n    //     _burn(id);\n    // }\n}\n",
  "sourcePath": "/home/rayzia/Desktop/truffle/contracts/Nft.sol",
  "compiler": {
    "name": "solc",
    "version": "0.8.17+commit.8df45f5f.Emscripten.clang"
  },
  "schemaVersion": "3.4.10",
  "updatedAt": "2022-10-24T06:16:43.273Z",
  "networkType": "ethereum",
  "devdoc": {
    "kind": "dev",
    "methods": {},
    "version": 1
  },
  "userdoc": {
    "kind": "user",
    "methods": {},
    "version": 1
  }
}