{
  "contractName": "NFT",
  "abi": [
    {
      "inputs": [],
      "stateMutability": "nonpayable",
      "type": "constructor"
    },
    {
      "anonymous": false,
      "inputs": [
        {
          "indexed": true,
          "internalType": "address",
          "name": "owner",
          "type": "address"
        },
        {
          "indexed": true,
          "internalType": "address",
          "name": "approved",
          "type": "address"
        },
        {
          "indexed": true,
          "internalType": "uint256",
          "name": "tokenId",
          "type": "uint256"
        }
      ],
      "name": "Approval",
      "type": "event"
    },
    {
      "anonymous": false,
      "inputs": [
        {
          "indexed": true,
          "internalType": "address",
          "name": "owner",
          "type": "address"
        },
        {
          "indexed": true,
          "internalType": "address",
          "name": "operator",
          "type": "address"
        },
        {
          "indexed": false,
          "internalType": "bool",
          "name": "approved",
          "type": "bool"
        }
      ],
      "name": "ApprovalForAll",
      "type": "event"
    },
    {
      "anonymous": false,
      "inputs": [
        {
          "indexed": true,
          "internalType": "address",
          "name": "previousOwner",
          "type": "address"
        },
        {
          "indexed": true,
          "internalType": "address",
          "name": "newOwner",
          "type": "address"
        }
      ],
      "name": "OwnershipTransferred",
      "type": "event"
    },
    {
      "anonymous": false,
      "inputs": [
        {
          "indexed": true,
          "internalType": "address",
          "name": "from",
          "type": "address"
        },
        {
          "indexed": true,
          "internalType": "address",
          "name": "to",
          "type": "address"
        },
        {
          "indexed": true,
          "internalType": "uint256",
          "name": "tokenId",
          "type": "uint256"
        }
      ],
      "name": "Transfer",
      "type": "event"
    },
    {
      "inputs": [],
      "name": "Admin",
      "outputs": [
        {
          "internalType": "address",
          "name": "",
          "type": "address"
        }
      ],
      "stateMutability": "view",
      "type": "function",
      "constant": true
    },
    {
      "inputs": [
        {
          "internalType": "address",
          "name": "to",
          "type": "address"
        },
        {
          "internalType": "uint256",
          "name": "tokenId",
          "type": "uint256"
        }
      ],
      "name": "approve",
      "outputs": [],
      "stateMutability": "nonpayable",
      "type": "function"
    },
    {
      "inputs": [],
      "name": "authentication",
      "outputs": [
        {
          "internalType": "string",
          "name": "",
          "type": "string"
        }
      ],
      "stateMutability": "view",
      "type": "function",
      "constant": true
    },
    {
      "inputs": [
        {
          "internalType": "address",
          "name": "owner",
          "type": "address"
        }
      ],
      "name": "balanceOf",
      "outputs": [
        {
          "internalType": "uint256",
          "name": "",
          "type": "uint256"
        }
      ],
      "stateMutability": "view",
      "type": "function",
      "constant": true
    },
    {
      "inputs": [
        {
          "internalType": "uint256",
          "name": "tokenId",
          "type": "uint256"
        }
      ],
      "name": "getApproved",
      "outputs": [
        {
          "internalType": "address",
          "name": "",
          "type": "address"
        }
      ],
      "stateMutability": "view",
      "type": "function",
      "constant": true
    },
    {
      "inputs": [
        {
          "internalType": "address",
          "name": "owner",
          "type": "address"
        },
        {
          "internalType": "address",
          "name": "operator",
          "type": "address"
        }
      ],
      "name": "isApprovedForAll",
      "outputs": [
        {
          "internalType": "bool",
          "name": "",
          "type": "bool"
        }
      ],
      "stateMutability": "view",
      "type": "function",
      "constant": true
    },
    {
      "inputs": [],
      "name": "name",
      "outputs": [
        {
          "internalType": "string",
          "name": "",
          "type": "string"
        }
      ],
      "stateMutability": "view",
      "type": "function",
      "constant": true
    },
    {
      "inputs": [],
      "name": "owner",
      "outputs": [
        {
          "internalType": "address",
          "name": "",
          "type": "address"
        }
      ],
      "stateMutability": "view",
      "type": "function",
      "constant": true
    },
    {
      "inputs": [
        {
          "internalType": "uint256",
          "name": "tokenId",
          "type": "uint256"
        }
      ],
      "name": "ownerOf",
      "outputs": [
        {
          "internalType": "address",
          "name": "",
          "type": "address"
        }
      ],
      "stateMutability": "view",
      "type": "function",
      "constant": true
    },
    {
      "inputs": [],
      "name": "renounceOwnership",
      "outputs": [],
      "stateMutability": "nonpayable",
      "type": "function"
    },
    {
      "inputs": [
        {
          "internalType": "address",
          "name": "from",
          "type": "address"
        },
        {
          "internalType": "address",
          "name": "to",
          "type": "address"
        },
        {
          "internalType": "uint256",
          "name": "tokenId",
          "type": "uint256"
        }
      ],
      "name": "safeTransferFrom",
      "outputs": [],
      "stateMutability": "nonpayable",
      "type": "function"
    },
    {
      "inputs": [
        {
          "internalType": "address",
          "name": "from",
          "type": "address"
        },
        {
          "internalType": "address",
          "name": "to",
          "type": "address"
        },
        {
          "internalType": "uint256",
          "name": "tokenId",
          "type": "uint256"
        },
        {
          "internalType": "bytes",
          "name": "_data",
          "type": "bytes"
        }
      ],
      "name": "safeTransferFrom",
      "outputs": [],
      "stateMutability": "nonpayable",
      "type": "function"
    },
    {
      "inputs": [
        {
          "internalType": "address",
          "name": "operator",
          "type": "address"
        },
        {
          "internalType": "bool",
          "name": "approved",
          "type": "bool"
        }
      ],
      "name": "setApprovalForAll",
      "outputs": [],
      "stateMutability": "nonpayable",
      "type": "function"
    },
    {
      "inputs": [
        {
          "internalType": "bytes4",
          "name": "interfaceId",
          "type": "bytes4"
        }
      ],
      "name": "supportsInterface",
      "outputs": [
        {
          "internalType": "bool",
          "name": "",
          "type": "bool"
        }
      ],
      "stateMutability": "view",
      "type": "function",
      "constant": true
    },
    {
      "inputs": [],
      "name": "symbol",
      "outputs": [
        {
          "internalType": "string",
          "name": "",
          "type": "string"
        }
      ],
      "stateMutability": "view",
      "type": "function",
      "constant": true
    },
    {
      "inputs": [
        {
          "internalType": "address",
          "name": "from",
          "type": "address"
        },
        {
          "internalType": "address",
          "name": "to",
          "type": "address"
        },
        {
          "internalType": "uint256",
          "name": "tokenId",
          "type": "uint256"
        }
      ],
      "name": "transferFrom",
      "outputs": [],
      "stateMutability": "nonpayable",
      "type": "function"
    },
    {
      "inputs": [
        {
          "internalType": "address",
          "name": "newOwner",
          "type": "address"
        }
      ],
      "name": "transferOwnership",
      "outputs": [],
      "stateMutability": "nonpayable",
      "type": "function"
    },
    {
      "inputs": [],
      "name": "verified",
      "outputs": [
        {
          "internalType": "bool",
          "name": "",
          "type": "bool"
        }
      ],
      "stateMutability": "view",
      "type": "function",
      "constant": true
    },
    {
      "inputs": [
        {
          "internalType": "string",
          "name": "_VerificationKey",
          "type": "string"
        }
      ],
      "name": "setKey",
      "outputs": [],
      "stateMutability": "nonpayable",
      "type": "function"
    },
    {
      "inputs": [],
      "name": "checkKey",
      "outputs": [
        {
          "internalType": "string",
          "name": "",
          "type": "string"
        }
      ],
      "stateMutability": "view",
      "type": "function",
      "constant": true
    },
    {
      "inputs": [
        {
          "internalType": "address",
          "name": "to",
          "type": "address"
        },
        {
          "internalType": "string",
          "name": "uri",
          "type": "string"
        },
        {
          "internalType": "string",
          "name": "_authentication",
          "type": "string"
        }
      ],
      "name": "safeMint",
      "outputs": [],
      "stateMutability": "nonpayable",
      "type": "function"
    },
    {
      "inputs": [
        {
          "internalType": "uint256",
          "name": "tokenId",
          "type": "uint256"
        }
      ],
      "name": "tokenURI",
      "outputs": [
        {
          "internalType": "string",
          "name": "",
          "type": "string"
        }
      ],
      "stateMutability": "view",
      "type": "function",
      "constant": true
    }
  ],
  "bytecode": "0x60806040526000600a553480156200001657600080fd5b506040518060400160405280600b81526020016a10dbdbdb195cdd0813919560aa1b8152506040518060400160405280600381526020016213919560ea1b8152508160009081620000689190620001a7565b506001620000778282620001a7565b505050620000946200008e620000ac60201b60201c565b620000b0565b600980546001600160a01b0319163317905562000273565b3390565b600680546001600160a01b038381166001600160a01b0319831681179093556040519116919082907f8be0079c531659141344cd1fd0a4f28419497f9722a3daafe3b4186f6b6457e090600090a35050565b634e487b7160e01b600052604160045260246000fd5b600181811c908216806200012d57607f821691505b6020821081036200014e57634e487b7160e01b600052602260045260246000fd5b50919050565b601f821115620001a257600081815260208120601f850160051c810160208610156200017d5750805b601f850160051c820191505b818110156200019e5782815560010162000189565b5050505b505050565b81516001600160401b03811115620001c357620001c362000102565b620001db81620001d4845462000118565b8462000154565b602080601f831160018114620002135760008415620001fa5750858301515b600019600386901b1c1916600185901b1785556200019e565b600085815260208120601f198616915b82811015620002445788860151825594840194600190910190840162000223565b5085821015620002635787850151600019600388901b60f8161c191681555b5050505050600190811b01905550565b611fc980620002836000396000f3fe608060405234801561001057600080fd5b50600436106101825760003560e01c806395d89b41116100d8578063bbb82d891161008c578063eca81d4211610066578063eca81d4214610324578063f2fde38b14610337578063ff1b636d1461034a57600080fd5b8063bbb82d89146102c8578063c87b56dd146102d5578063e985e9c5146102e857600080fd5b8063af42d106116100bd578063af42d1061461029a578063b88d4fde146102ad578063b996c170146102c057600080fd5b806395d89b411461027f578063a22cb4651461028757600080fd5b806342842e0e1161013a57806370a082311161011457806370a0823114610245578063715018a6146102665780638da5cb5b1461026e57600080fd5b806342842e0e146102175780636352211e1461022a57806363c06a951461023d57600080fd5b8063081812fc1161016b578063081812fc146101c4578063095ea7b3146101ef57806323b872dd1461020457600080fd5b806301ffc9a71461018757806306fdde03146101af575b600080fd5b61019a6101953660046118dc565b61035d565b60405190151581526020015b60405180910390f35b6101b76103af565b6040516101a69190611949565b6101d76101d236600461195c565b610441565b6040516001600160a01b0390911681526020016101a6565b6102026101fd366004611991565b6104db565b005b6102026102123660046119bb565b61060e565b6102026102253660046119bb565b610695565b6101d761023836600461195c565b6106b0565b6101b761073b565b6102586102533660046119f7565b6107cb565b6040519081526020016101a6565b610202610865565b6006546001600160a01b03166101d7565b6101b76108cb565b610202610295366004611a12565b6108da565b6102026102a8366004611afa565b6108e9565b6102026102bb366004611b2f565b61094f565b6101b76109dd565b600d5461019a9060ff1681565b6101b76102e336600461195c565b610a6b565b61019a6102f6366004611bab565b6001600160a01b03918216600090815260056020908152604080832093909416825291909152205460ff1690565b610202610332366004611bde565b610a76565b6102026103453660046119f7565b610bc6565b6009546101d7906001600160a01b031681565b60006001600160e01b031982166380ac58cd60e01b148061038e57506001600160e01b03198216635b5e139f60e01b145b806103a957506301ffc9a760e01b6001600160e01b03198316145b92915050565b6060600080546103be90611c52565b80601f01602080910402602001604051908101604052809291908181526020018280546103ea90611c52565b80156104375780601f1061040c57610100808354040283529160200191610437565b820191906000526020600020905b81548152906001019060200180831161041a57829003601f168201915b5050505050905090565b6000818152600260205260408120546001600160a01b03166104bf5760405162461bcd60e51b815260206004820152602c60248201527f4552433732313a20617070726f76656420717565727920666f72206e6f6e657860448201526b34b9ba32b73a103a37b5b2b760a11b60648201526084015b60405180910390fd5b506000908152600460205260409020546001600160a01b031690565b60006104e6826106b0565b9050806001600160a01b0316836001600160a01b0316036105535760405162461bcd60e51b815260206004820152602160248201527f4552433732313a20617070726f76616c20746f2063757272656e74206f776e656044820152603960f91b60648201526084016104b6565b336001600160a01b038216148061058d57506001600160a01b038116600090815260056020908152604080832033845290915290205460ff165b6105ff5760405162461bcd60e51b815260206004820152603860248201527f4552433732313a20617070726f76652063616c6c6572206973206e6f74206f7760448201527f6e6572206e6f7220617070726f76656420666f7220616c6c000000000000000060648201526084016104b6565b6106098383610ca8565b505050565b6106183382610d16565b61068a5760405162461bcd60e51b815260206004820152603160248201527f4552433732313a207472616e736665722063616c6c6572206973206e6f74206f60448201527f776e6572206e6f7220617070726f76656400000000000000000000000000000060648201526084016104b6565b610609838383610e0d565b6106098383836040518060200160405280600081525061094f565b6000818152600260205260408120546001600160a01b0316806103a95760405162461bcd60e51b815260206004820152602960248201527f4552433732313a206f776e657220717565727920666f72206e6f6e657869737460448201527f656e7420746f6b656e000000000000000000000000000000000000000000000060648201526084016104b6565b6009546060906001600160a01b031633146107be5760405162461bcd60e51b815260206004820152603460248201527f796f75206172656e277420746865204f776e65722c4f6e6c792041646d696e2060448201527f63616e20616365737320616e64206d6f6469667900000000000000000000000060648201526084016104b6565b600b80546103be90611c52565b60006001600160a01b0382166108495760405162461bcd60e51b815260206004820152602a60248201527f4552433732313a2062616c616e636520717565727920666f7220746865207a6560448201527f726f20616464726573730000000000000000000000000000000000000000000060648201526084016104b6565b506001600160a01b031660009081526003602052604090205490565b6006546001600160a01b031633146108bf5760405162461bcd60e51b815260206004820181905260248201527f4f776e61626c653a2063616c6c6572206973206e6f7420746865206f776e657260448201526064016104b6565b6108c96000610fc1565b565b6060600180546103be90611c52565b6108e5338383611013565b5050565b6009546001600160a01b031633146109435760405162461bcd60e51b815260206004820152601460248201527f796f75206172656e277420746865204f776e657200000000000000000000000060448201526064016104b6565b600b6108e58282611cda565b6109593383610d16565b6109cb5760405162461bcd60e51b815260206004820152603160248201527f4552433732313a207472616e736665722063616c6c6572206973206e6f74206f60448201527f776e6572206e6f7220617070726f76656400000000000000000000000000000060648201526084016104b6565b6109d7848484846110e1565b50505050565b600c80546109ea90611c52565b80601f0160208091040260200160405190810160405280929190818152602001828054610a1690611c52565b8015610a635780601f10610a3857610100808354040283529160200191610a63565b820191906000526020600020905b815481529060010190602001808311610a4657829003601f168201915b505050505081565b60606103a98261115f565b6006546001600160a01b03163314610ad05760405162461bcd60e51b815260206004820181905260248201527f4f776e61626c653a2063616c6c6572206973206e6f7420746865206f776e657260448201526064016104b6565b600c610adc8282611cda565b50600b604051602001610aef9190611d9a565b60405160208183030381529060405280519060200120600c604051602001610b179190611d9a565b6040516020818303038152906040528051906020012003610b4057600d805460ff191660011790555b600d5460ff161515600114610b975760405162461bcd60e51b815260206004820152601260248201527f6b65797320646f65736e2774206d61746368000000000000000000000000000060448201526064016104b6565b6000610ba260085490565b9050610bb2600880546001019055565b610bbc84826112dc565b6109d781846112f6565b6006546001600160a01b03163314610c205760405162461bcd60e51b815260206004820181905260248201527f4f776e61626c653a2063616c6c6572206973206e6f7420746865206f776e657260448201526064016104b6565b6001600160a01b038116610c9c5760405162461bcd60e51b815260206004820152602660248201527f4f776e61626c653a206e6577206f776e657220697320746865207a65726f206160448201527f646472657373000000000000000000000000000000000000000000000000000060648201526084016104b6565b610ca581610fc1565b50565b600081815260046020526040902080546001600160a01b0319166001600160a01b0384169081179091558190610cdd826106b0565b6001600160a01b03167f8c5be1e5ebec7d5bd14f71427d1e84f3dd0314c0f7b2291e5b200ac8c7c3b92560405160405180910390a45050565b6000818152600260205260408120546001600160a01b0316610d8f5760405162461bcd60e51b815260206004820152602c60248201527f4552433732313a206f70657261746f7220717565727920666f72206e6f6e657860448201526b34b9ba32b73a103a37b5b2b760a11b60648201526084016104b6565b6000610d9a836106b0565b9050806001600160a01b0316846001600160a01b03161480610dd55750836001600160a01b0316610dca84610441565b6001600160a01b0316145b80610e0557506001600160a01b0380821660009081526005602090815260408083209388168352929052205460ff165b949350505050565b826001600160a01b0316610e20826106b0565b6001600160a01b031614610e9c5760405162461bcd60e51b815260206004820152602560248201527f4552433732313a207472616e736665722066726f6d20696e636f72726563742060448201527f6f776e657200000000000000000000000000000000000000000000000000000060648201526084016104b6565b6001600160a01b038216610efe5760405162461bcd60e51b8152602060048201526024808201527f4552433732313a207472616e7366657220746f20746865207a65726f206164646044820152637265737360e01b60648201526084016104b6565b610f09600082610ca8565b6001600160a01b0383166000908152600360205260408120805460019290610f32908490611e26565b90915550506001600160a01b0382166000908152600360205260408120805460019290610f60908490611e39565b909155505060008181526002602052604080822080546001600160a01b0319166001600160a01b0386811691821790925591518493918716917fddf252ad1be2c89b69c2b068fc378daa952ba7f163c4a11628f55a4df523b3ef91a4505050565b600680546001600160a01b038381166001600160a01b0319831681179093556040519116919082907f8be0079c531659141344cd1fd0a4f28419497f9722a3daafe3b4186f6b6457e090600090a35050565b816001600160a01b0316836001600160a01b0316036110745760405162461bcd60e51b815260206004820152601960248201527f4552433732313a20617070726f766520746f2063616c6c65720000000000000060448201526064016104b6565b6001600160a01b03838116600081815260056020908152604080832094871680845294825291829020805460ff191686151590811790915591519182527f17307eab39ab6107e8899845ad3d59bd9653f200f220920489ca2b5937696c31910160405180910390a3505050565b6110ec848484610e0d565b6110f884848484611398565b6109d75760405162461bcd60e51b815260206004820152603260248201527f4552433732313a207472616e7366657220746f206e6f6e20455243373231526560448201527131b2b4bb32b91034b6b83632b6b2b73a32b960711b60648201526084016104b6565b6000818152600260205260409020546060906001600160a01b03166111ec5760405162461bcd60e51b815260206004820152603160248201527f45524337323155524953746f726167653a2055524920717565727920666f722060448201527f6e6f6e6578697374656e7420746f6b656e00000000000000000000000000000060648201526084016104b6565b6000828152600760205260408120805461120590611c52565b80601f016020809104026020016040519081016040528092919081815260200182805461123190611c52565b801561127e5780601f106112535761010080835404028352916020019161127e565b820191906000526020600020905b81548152906001019060200180831161126157829003601f168201915b50505050509050600061128f6114e4565b905080516000036112a1575092915050565b8151156112d35780826040516020016112bb929190611e4c565b60405160208183030381529060405292505050919050565b610e0584611504565b6108e58282604051806020016040528060008152506115ed565b6000828152600260205260409020546001600160a01b03166113805760405162461bcd60e51b815260206004820152602e60248201527f45524337323155524953746f726167653a2055524920736574206f66206e6f6e60448201527f6578697374656e7420746f6b656e00000000000000000000000000000000000060648201526084016104b6565b60008281526007602052604090206106098282611cda565b60006001600160a01b0384163b156114d957604051630a85bd0160e11b81526001600160a01b0385169063150b7a02906113dc903390899088908890600401611e7b565b6020604051808303816000875af1925050508015611417575060408051601f3d908101601f1916820190925261141491810190611eb7565b60015b6114bf573d808015611445576040519150601f19603f3d011682016040523d82523d6000602084013e61144a565b606091505b5080516000036114b75760405162461bcd60e51b815260206004820152603260248201527f4552433732313a207472616e7366657220746f206e6f6e20455243373231526560448201527131b2b4bb32b91034b6b83632b6b2b73a32b960711b60648201526084016104b6565b805181602001fd5b6001600160e01b031916630a85bd0160e11b149050610e05565b506001949350505050565b6060604051806080016040528060528152602001611f4260529139905090565b6000818152600260205260409020546060906001600160a01b03166115915760405162461bcd60e51b815260206004820152602f60248201527f4552433732314d657461646174613a2055524920717565727920666f72206e6f60448201527f6e6578697374656e7420746f6b656e000000000000000000000000000000000060648201526084016104b6565b600061159b6114e4565b905060008151116115bb57604051806020016040528060008152506115e6565b806115c58461166b565b6040516020016115d6929190611e4c565b6040516020818303038152906040525b9392505050565b6115f78383611784565b6116046000848484611398565b6106095760405162461bcd60e51b815260206004820152603260248201527f4552433732313a207472616e7366657220746f206e6f6e20455243373231526560448201527131b2b4bb32b91034b6b83632b6b2b73a32b960711b60648201526084016104b6565b6060816000036116925750506040805180820190915260018152600360fc1b602082015290565b8160005b81156116bc57806116a681611ed4565b91506116b59050600a83611f03565b9150611696565b60008167ffffffffffffffff8111156116d7576116d7611a4e565b6040519080825280601f01601f191660200182016040528015611701576020820181803683370190505b5090505b8415610e0557611716600183611e26565b9150611723600a86611f17565b61172e906030611e39565b60f81b81838151811061174357611743611f2b565b60200101907effffffffffffffffffffffffffffffffffffffffffffffffffffffffffffff1916908160001a90535061177d600a86611f03565b9450611705565b6001600160a01b0382166117da5760405162461bcd60e51b815260206004820181905260248201527f4552433732313a206d696e7420746f20746865207a65726f206164647265737360448201526064016104b6565b6000818152600260205260409020546001600160a01b03161561183f5760405162461bcd60e51b815260206004820152601c60248201527f4552433732313a20746f6b656e20616c7265616479206d696e7465640000000060448201526064016104b6565b6001600160a01b0382166000908152600360205260408120805460019290611868908490611e39565b909155505060008181526002602052604080822080546001600160a01b0319166001600160a01b03861690811790915590518392907fddf252ad1be2c89b69c2b068fc378daa952ba7f163c4a11628f55a4df523b3ef908290a45050565b6001600160e01b031981168114610ca557600080fd5b6000602082840312156118ee57600080fd5b81356115e6816118c6565b60005b838110156119145781810151838201526020016118fc565b50506000910152565b600081518084526119358160208601602086016118f9565b601f01601f19169290920160200192915050565b6020815260006115e6602083018461191d565b60006020828403121561196e57600080fd5b5035919050565b80356001600160a01b038116811461198c57600080fd5b919050565b600080604083850312156119a457600080fd5b6119ad83611975565b946020939093013593505050565b6000806000606084860312156119d057600080fd5b6119d984611975565b92506119e760208501611975565b9150604084013590509250925092565b600060208284031215611a0957600080fd5b6115e682611975565b60008060408385031215611a2557600080fd5b611a2e83611975565b915060208301358015158114611a4357600080fd5b809150509250929050565b634e487b7160e01b600052604160045260246000fd5b600067ffffffffffffffff80841115611a7f57611a7f611a4e565b604051601f8501601f19908116603f01168101908282118183101715611aa757611aa7611a4e565b81604052809350858152868686011115611ac057600080fd5b858560208301376000602087830101525050509392505050565b600082601f830112611aeb57600080fd5b6115e683833560208501611a64565b600060208284031215611b0c57600080fd5b813567ffffffffffffffff811115611b2357600080fd5b610e0584828501611ada565b60008060008060808587031215611b4557600080fd5b611b4e85611975565b9350611b5c60208601611975565b925060408501359150606085013567ffffffffffffffff811115611b7f57600080fd5b8501601f81018713611b9057600080fd5b611b9f87823560208401611a64565b91505092959194509250565b60008060408385031215611bbe57600080fd5b611bc783611975565b9150611bd560208401611975565b90509250929050565b600080600060608486031215611bf357600080fd5b611bfc84611975565b9250602084013567ffffffffffffffff80821115611c1957600080fd5b611c2587838801611ada565b93506040860135915080821115611c3b57600080fd5b50611c4886828701611ada565b9150509250925092565b600181811c90821680611c6657607f821691505b602082108103611c8657634e487b7160e01b600052602260045260246000fd5b50919050565b601f82111561060957600081815260208120601f850160051c81016020861015611cb35750805b601f850160051c820191505b81811015611cd257828155600101611cbf565b505050505050565b815167ffffffffffffffff811115611cf457611cf4611a4e565b611d0881611d028454611c52565b84611c8c565b602080601f831160018114611d3d5760008415611d255750858301515b600019600386901b1c1916600185901b178555611cd2565b600085815260208120601f198616915b82811015611d6c57888601518255948401946001909101908401611d4d565b5085821015611d8a5787850151600019600388901b60f8161c191681555b5050505050600190811b01905550565b6000808354611da881611c52565b60018281168015611dc05760018114611dd557611e04565b60ff1984168752821515830287019450611e04565b8760005260208060002060005b85811015611dfb5781548a820152908401908201611de2565b50505082870194505b50929695505050505050565b634e487b7160e01b600052601160045260246000fd5b818103818111156103a9576103a9611e10565b808201808211156103a9576103a9611e10565b60008351611e5e8184602088016118f9565b835190830190611e728183602088016118f9565b01949350505050565b60006001600160a01b03808716835280861660208401525083604083015260806060830152611ead608083018461191d565b9695505050505050565b600060208284031215611ec957600080fd5b81516115e6816118c6565b600060018201611ee657611ee6611e10565b5060010190565b634e487b7160e01b600052601260045260246000fd5b600082611f1257611f12611eed565b500490565b600082611f2657611f26611eed565b500690565b634e487b7160e01b600052603260045260246000fdfe68747470733a2f2f6170702e70696e6174612e636c6f75642f70696e6d616e616765722f516d586d734a5572686178587438546a546771696f75537774376e726963687a5438415462664546623845714e58a2646970667358221220be10ee3cfcf574f2d8fd3c368bddbbb9ad09deed4ac0da2680970652e2463aa464736f6c63430008110033",
  "immutableReferences": {},
  "source": "// SPDX-License-Identifier: MIT\npragma solidity ^0.8.13;\n\nimport \"@openzeppelin/contracts/token/ERC721/ERC721.sol\";\nimport \"@openzeppelin/contracts/token/ERC721/extensions/ERC721URIStorage.sol\";\nimport \"@openzeppelin/contracts/access/Ownable.sol\";\nimport \"@openzeppelin/contracts/utils/Counters.sol\";\n\n\ncontract NFT is ERC721 ,Ownable ,ERC721URIStorage {\n\n     using Counters for Counters.Counter;\n\n    Counters.Counter private _tokenIdCounter;\n\n    constructor() ERC721(\"Coolest NFT\", \"NFT\") {\n        Admin = msg.sender;\n    }\n\n//\n    function _baseURI() internal pure override returns (string memory) {\n        return \"https://app.pinata.cloud/pinmanager/QmXmsJUrhaxXt8TjTgqiouSwt7nrichzT8ATbfEFb8EqNX\";\n    }\n\n    //name symbol\n\n    //TODAYS WORK\n    address public Admin;\n    uint256 private _tokenId = 0;\n    string private VerificationKey;//Set by ONly Admin\n\tstring public authentication;// input from User\n    bool public verified;//default value false\n\n\n\t//function to take input and check it with a key set by Admin\n\n\t// function SetAuthentication(string memory _authentication)public {\n\t// \t// authentication = _authentication;\n    //     if(keccak256(abi.encodePacked(_authentication)) == keccak256(abi.encodePacked(VerificationKey))){\n    //          verified = true;\n\n    //    }\n\t// }\n\n    function setKey(string memory _VerificationKey) public {\n        require(msg.sender == Admin,\n\t\t \"you aren't the Owner\");\n        VerificationKey = _VerificationKey;\n    }\n \n  //ye Function access provide kary ga Verification key ko Check karny ka\n\n    function checkKey() public view returns (string memory) {\n        require(msg.sender == Admin, \n\t\t\"you aren't the Owner,Only Admin can acess and modify\");\n\t\treturn VerificationKey;\n    }\n\n// _______agr dono keys same hngi to ye function true output kary ga\n\n\n    \n\tfunction safeMint(address to,string memory uri,string memory _authentication) public onlyOwner {\n        authentication = _authentication;\n        if((keccak256(abi.encodePacked(authentication)) == keccak256(abi.encodePacked(VerificationKey)))){\n        verified = true;\n        }\n        require(verified == true,\"keys doesn't match\");\n        uint256 tokenId = _tokenIdCounter.current();\n        _tokenIdCounter.increment();\n        _safeMint(to, tokenId);\n        _setTokenURI(tokenId, uri);\n    }\n\n\n    function _burn(uint256 tokenId) internal override(ERC721, ERC721URIStorage) {\n        super._burn(tokenId);\n    }\n\n    function tokenURI(uint256 tokenId)\n        public\n        view\n        override(ERC721, ERC721URIStorage)\n        returns (string memory)\n    {\n        return super.tokenURI(tokenId);\n    }\n    \n\t\t\n\t\t\n        \n\n        \n    }\n\n\n",
  "sourcePath": "/home/rayzia/Desktop/truffle/contracts/NFT.sol",
  "compiler": {
    "name": "solc",
    "version": "0.8.17+commit.8df45f5f.Emscripten.clang"
  },
  "schemaVersion": "3.4.10",
  "updatedAt": "2022-10-24T06:40:42.752Z",
  "networkType": "ethereum",
  "devdoc": {
    "kind": "dev",
    "methods": {
      "approve(address,uint256)": {
        "details": "See {IERC721-approve}."
      },
      "balanceOf(address)": {
        "details": "See {IERC721-balanceOf}."
      },
      "getApproved(uint256)": {
        "details": "See {IERC721-getApproved}."
      },
      "isApprovedForAll(address,address)": {
        "details": "See {IERC721-isApprovedForAll}."
      },
      "name()": {
        "details": "See {IERC721Metadata-name}."
      },
      "owner()": {
        "details": "Returns the address of the current owner."
      },
      "ownerOf(uint256)": {
        "details": "See {IERC721-ownerOf}."
      },
      "renounceOwnership()": {
        "details": "Leaves the contract without owner. It will not be possible to call `onlyOwner` functions anymore. Can only be called by the current owner. NOTE: Renouncing ownership will leave the contract without an owner, thereby removing any functionality that is only available to the owner."
      },
      "safeTransferFrom(address,address,uint256)": {
        "details": "See {IERC721-safeTransferFrom}."
      },
      "safeTransferFrom(address,address,uint256,bytes)": {
        "details": "See {IERC721-safeTransferFrom}."
      },
      "setApprovalForAll(address,bool)": {
        "details": "See {IERC721-setApprovalForAll}."
      },
      "supportsInterface(bytes4)": {
        "details": "See {IERC165-supportsInterface}."
      },
      "symbol()": {
        "details": "See {IERC721Metadata-symbol}."
      },
      "transferFrom(address,address,uint256)": {
        "details": "See {IERC721-transferFrom}."
      },
      "transferOwnership(address)": {
        "details": "Transfers ownership of the contract to a new account (`newOwner`). Can only be called by the current owner."
      }
    },
    "version": 1
  },
  "userdoc": {
    "kind": "user",
    "methods": {},
    "version": 1
  }
}